{
  "contractName": "RaqamNFT",
  "abi": [
    {
      "inputs": [
        {
          "internalType": "string",
          "name": "baseURI_",
          "type": "string"
        },
        {
          "internalType": "string",
          "name": "_contrctURI",
          "type": "string"
        },
        {
          "internalType": "uint256",
          "name": "_VIPPrice",
          "type": "uint256"
        },
        {
          "internalType": "uint256",
          "name": "_privatePrice",
          "type": "uint256"
        },
        {
          "internalType": "uint256",
          "name": "_publicPrice",
          "type": "uint256"
        },
        {
          "internalType": "uint256",
          "name": "_VIPLimit",
          "type": "uint256"
        },
        {
          "internalType": "uint256",
          "name": "_privateLimit",
          "type": "uint256"
        },
        {
          "internalType": "uint256",
          "name": "_publicLimit",
          "type": "uint256"
        },
        {
          "internalType": "uint256",
          "name": "_VIPLimitPerUser",
          "type": "uint256"
        },
        {
          "internalType": "uint256",
          "name": "_privateLimitPerUser",
          "type": "uint256"
        },
        {
          "internalType": "uint256",
          "name": "_limitPerTransaction",
          "type": "uint256"
        }
      ],
      "stateMutability": "nonpayable",
      "type": "constructor"
    },
    {
      "anonymous": false,
      "inputs": [
        {
          "indexed": true,
          "internalType": "address",
          "name": "owner",
          "type": "address"
        },
        {
          "indexed": true,
          "internalType": "address",
          "name": "approved",
          "type": "address"
        },
        {
          "indexed": true,
          "internalType": "uint256",
          "name": "tokenId",
          "type": "uint256"
        }
      ],
      "name": "Approval",
      "type": "event"
    },
    {
      "anonymous": false,
      "inputs": [
        {
          "indexed": true,
          "internalType": "address",
          "name": "owner",
          "type": "address"
        },
        {
          "indexed": true,
          "internalType": "address",
          "name": "operator",
          "type": "address"
        },
        {
          "indexed": false,
          "internalType": "bool",
          "name": "approved",
          "type": "bool"
        }
      ],
      "name": "ApprovalForAll",
      "type": "event"
    },
    {
      "anonymous": false,
      "inputs": [
        {
          "indexed": true,
          "internalType": "address",
          "name": "previousOwner",
          "type": "address"
        },
        {
          "indexed": true,
          "internalType": "address",
          "name": "newOwner",
          "type": "address"
        }
      ],
      "name": "OwnershipTransferred",
      "type": "event"
    },
    {
      "anonymous": false,
      "inputs": [
        {
          "indexed": true,
          "internalType": "address",
          "name": "from",
          "type": "address"
        },
        {
          "indexed": true,
          "internalType": "address",
          "name": "to",
          "type": "address"
        },
        {
          "indexed": true,
          "internalType": "uint256",
          "name": "tokenId",
          "type": "uint256"
        }
      ],
      "name": "Transfer",
      "type": "event"
    },
    {
      "inputs": [],
      "name": "VIPLimit",
      "outputs": [
        {
          "internalType": "uint256",
          "name": "",
          "type": "uint256"
        }
      ],
      "stateMutability": "view",
      "type": "function"
    },
    {
      "inputs": [],
      "name": "VIPLimitPerUser",
      "outputs": [
        {
          "internalType": "uint256",
          "name": "",
          "type": "uint256"
        }
      ],
      "stateMutability": "view",
      "type": "function"
    },
    {
      "inputs": [],
      "name": "VIPPrice",
      "outputs": [
        {
          "internalType": "uint256",
          "name": "",
          "type": "uint256"
        }
      ],
      "stateMutability": "view",
      "type": "function"
    },
    {
      "inputs": [
        {
          "internalType": "address",
          "name": "to",
          "type": "address"
        },
        {
          "internalType": "uint256",
          "name": "tokenId",
          "type": "uint256"
        }
      ],
      "name": "approve",
      "outputs": [],
      "stateMutability": "nonpayable",
      "type": "function"
    },
    {
      "inputs": [
        {
          "internalType": "address",
          "name": "owner",
          "type": "address"
        }
      ],
      "name": "balanceOf",
      "outputs": [
        {
          "internalType": "uint256",
          "name": "",
          "type": "uint256"
        }
      ],
      "stateMutability": "view",
      "type": "function"
    },
    {
      "inputs": [],
      "name": "contractURI",
      "outputs": [
        {
          "internalType": "string",
          "name": "",
          "type": "string"
        }
      ],
      "stateMutability": "view",
      "type": "function"
    },
    {
      "inputs": [
        {
          "internalType": "uint256",
          "name": "tokenId",
          "type": "uint256"
        }
      ],
      "name": "getApproved",
      "outputs": [
        {
          "internalType": "address",
          "name": "",
          "type": "address"
        }
      ],
      "stateMutability": "view",
      "type": "function"
    },
    {
      "inputs": [
        {
          "internalType": "address",
          "name": "owner",
          "type": "address"
        },
        {
          "internalType": "address",
          "name": "operator",
          "type": "address"
        }
      ],
      "name": "isApprovedForAll",
      "outputs": [
        {
          "internalType": "bool",
          "name": "",
          "type": "bool"
        }
      ],
      "stateMutability": "view",
      "type": "function"
    },
    {
      "inputs": [],
      "name": "limitPerTransaction",
      "outputs": [
        {
          "internalType": "uint256",
          "name": "",
          "type": "uint256"
        }
      ],
      "stateMutability": "view",
      "type": "function"
    },
    {
      "inputs": [],
      "name": "locked",
      "outputs": [
        {
          "internalType": "bool",
          "name": "",
          "type": "bool"
        }
      ],
      "stateMutability": "view",
      "type": "function"
    },
    {
      "inputs": [],
      "name": "maxSupply",
      "outputs": [
        {
          "internalType": "uint256",
          "name": "",
          "type": "uint256"
        }
      ],
      "stateMutability": "view",
      "type": "function"
    },
    {
      "inputs": [],
      "name": "name",
      "outputs": [
        {
          "internalType": "string",
          "name": "",
          "type": "string"
        }
      ],
      "stateMutability": "view",
      "type": "function"
    },
    {
      "inputs": [],
      "name": "owner",
      "outputs": [
        {
          "internalType": "address",
          "name": "",
          "type": "address"
        }
      ],
      "stateMutability": "view",
      "type": "function"
    },
    {
      "inputs": [
        {
          "internalType": "uint256",
          "name": "tokenId",
          "type": "uint256"
        }
      ],
      "name": "ownerOf",
      "outputs": [
        {
          "internalType": "address",
          "name": "",
          "type": "address"
        }
      ],
      "stateMutability": "view",
      "type": "function"
    },
    {
      "inputs": [],
      "name": "presaleLive",
      "outputs": [
        {
          "internalType": "bool",
          "name": "",
          "type": "bool"
        }
      ],
      "stateMutability": "view",
      "type": "function"
    },
    {
      "inputs": [
        {
          "internalType": "address",
          "name": "",
          "type": "address"
        }
      ],
      "name": "presalerListPurchases",
      "outputs": [
        {
          "internalType": "uint256",
          "name": "",
          "type": "uint256"
        }
      ],
      "stateMutability": "view",
      "type": "function"
    },
    {
      "inputs": [],
      "name": "privateAmountMinted",
      "outputs": [
        {
          "internalType": "uint256",
          "name": "",
          "type": "uint256"
        }
      ],
      "stateMutability": "view",
      "type": "function"
    },
    {
      "inputs": [],
      "name": "privateLimit",
      "outputs": [
        {
          "internalType": "uint256",
          "name": "",
          "type": "uint256"
        }
      ],
      "stateMutability": "view",
      "type": "function"
    },
    {
      "inputs": [],
      "name": "privateLimitPerUser",
      "outputs": [
        {
          "internalType": "uint256",
          "name": "",
          "type": "uint256"
        }
      ],
      "stateMutability": "view",
      "type": "function"
    },
    {
      "inputs": [],
      "name": "privatePrice",
      "outputs": [
        {
          "internalType": "uint256",
          "name": "",
          "type": "uint256"
        }
      ],
      "stateMutability": "view",
      "type": "function"
    },
    {
      "inputs": [],
      "name": "pubilcPrice",
      "outputs": [
        {
          "internalType": "uint256",
          "name": "",
          "type": "uint256"
        }
      ],
      "stateMutability": "view",
      "type": "function"
    },
    {
      "inputs": [],
      "name": "publicAmountMinted",
      "outputs": [
        {
          "internalType": "uint256",
          "name": "",
          "type": "uint256"
        }
      ],
      "stateMutability": "view",
      "type": "function"
    },
    {
      "inputs": [],
      "name": "publicLimit",
      "outputs": [
        {
          "internalType": "uint256",
          "name": "",
          "type": "uint256"
        }
      ],
      "stateMutability": "view",
      "type": "function"
    },
    {
      "inputs": [],
      "name": "renounceOwnership",
      "outputs": [],
      "stateMutability": "nonpayable",
      "type": "function"
    },
    {
      "inputs": [
        {
          "internalType": "address",
          "name": "from",
          "type": "address"
        },
        {
          "internalType": "address",
          "name": "to",
          "type": "address"
        },
        {
          "internalType": "uint256",
          "name": "tokenId",
          "type": "uint256"
        }
      ],
      "name": "safeTransferFrom",
      "outputs": [],
      "stateMutability": "nonpayable",
      "type": "function"
    },
    {
      "inputs": [
        {
          "internalType": "address",
          "name": "from",
          "type": "address"
        },
        {
          "internalType": "address",
          "name": "to",
          "type": "address"
        },
        {
          "internalType": "uint256",
          "name": "tokenId",
          "type": "uint256"
        },
        {
          "internalType": "bytes",
          "name": "_data",
          "type": "bytes"
        }
      ],
      "name": "safeTransferFrom",
      "outputs": [],
      "stateMutability": "nonpayable",
      "type": "function"
    },
    {
      "inputs": [],
      "name": "saleLive",
      "outputs": [
        {
          "internalType": "bool",
          "name": "",
          "type": "bool"
        }
      ],
      "stateMutability": "view",
      "type": "function"
    },
    {
      "inputs": [
        {
          "internalType": "address",
          "name": "operator",
          "type": "address"
        },
        {
          "internalType": "bool",
          "name": "approved",
          "type": "bool"
        }
      ],
      "name": "setApprovalForAll",
      "outputs": [],
      "stateMutability": "nonpayable",
      "type": "function"
    },
    {
      "inputs": [],
      "name": "symbol",
      "outputs": [
        {
          "internalType": "string",
          "name": "",
          "type": "string"
        }
      ],
      "stateMutability": "view",
      "type": "function"
    },
    {
      "inputs": [
        {
          "internalType": "uint256",
          "name": "index",
          "type": "uint256"
        }
      ],
      "name": "tokenByIndex",
      "outputs": [
        {
          "internalType": "uint256",
          "name": "",
          "type": "uint256"
        }
      ],
      "stateMutability": "view",
      "type": "function"
    },
    {
      "inputs": [
        {
          "internalType": "address",
          "name": "owner",
          "type": "address"
        },
        {
          "internalType": "uint256",
          "name": "index",
          "type": "uint256"
        }
      ],
      "name": "tokenOfOwnerByIndex",
      "outputs": [
        {
          "internalType": "uint256",
          "name": "",
          "type": "uint256"
        }
      ],
      "stateMutability": "view",
      "type": "function"
    },
    {
      "inputs": [],
      "name": "totalSupply",
      "outputs": [
        {
          "internalType": "uint256",
          "name": "",
          "type": "uint256"
        }
      ],
      "stateMutability": "view",
      "type": "function"
    },
    {
      "inputs": [
        {
          "internalType": "address",
          "name": "from",
          "type": "address"
        },
        {
          "internalType": "address",
          "name": "to",
          "type": "address"
        },
        {
          "internalType": "uint256",
          "name": "tokenId",
          "type": "uint256"
        }
      ],
      "name": "transferFrom",
      "outputs": [],
      "stateMutability": "nonpayable",
      "type": "function"
    },
    {
      "inputs": [
        {
          "internalType": "address",
          "name": "newOwner",
          "type": "address"
        }
      ],
      "name": "transferOwnership",
      "outputs": [],
      "stateMutability": "nonpayable",
      "type": "function"
    },
    {
      "inputs": [],
      "name": "vipAmountMinted",
      "outputs": [
        {
          "internalType": "uint256",
          "name": "",
          "type": "uint256"
        }
      ],
      "stateMutability": "view",
      "type": "function"
    },
    {
      "inputs": [
        {
          "internalType": "address",
          "name": "",
          "type": "address"
        }
      ],
      "name": "vipListPurchases",
      "outputs": [
        {
          "internalType": "uint256",
          "name": "",
          "type": "uint256"
        }
      ],
      "stateMutability": "view",
      "type": "function"
    },
    {
      "inputs": [],
      "name": "vipLive",
      "outputs": [
        {
          "internalType": "bool",
          "name": "",
          "type": "bool"
        }
      ],
      "stateMutability": "view",
      "type": "function"
    },
    {
      "inputs": [
        {
          "internalType": "address[]",
          "name": "users",
          "type": "address[]"
        }
      ],
      "name": "addPrivateUsers",
      "outputs": [],
      "stateMutability": "nonpayable",
      "type": "function"
    },
    {
      "inputs": [
        {
          "internalType": "address[]",
          "name": "users",
          "type": "address[]"
        }
      ],
      "name": "removePrivateUsers",
      "outputs": [],
      "stateMutability": "nonpayable",
      "type": "function"
    },
    {
      "inputs": [
        {
          "internalType": "address",
          "name": "user",
          "type": "address"
        }
      ],
      "name": "isUserPrivate",
      "outputs": [
        {
          "internalType": "bool",
          "name": "",
          "type": "bool"
        }
      ],
      "stateMutability": "view",
      "type": "function"
    },
    {
      "inputs": [],
      "name": "getPrivateUsers",
      "outputs": [
        {
          "internalType": "address[]",
          "name": "",
          "type": "address[]"
        }
      ],
      "stateMutability": "view",
      "type": "function"
    },
    {
      "inputs": [
        {
          "internalType": "address[]",
          "name": "users",
          "type": "address[]"
        }
      ],
      "name": "addVIPUsers",
      "outputs": [],
      "stateMutability": "nonpayable",
      "type": "function"
    },
    {
      "inputs": [
        {
          "internalType": "address[]",
          "name": "users",
          "type": "address[]"
        }
      ],
      "name": "removeVIPUsers",
      "outputs": [],
      "stateMutability": "nonpayable",
      "type": "function"
    },
    {
      "inputs": [
        {
          "internalType": "address",
          "name": "user",
          "type": "address"
        }
      ],
      "name": "isUserVIP",
      "outputs": [
        {
          "internalType": "bool",
          "name": "",
          "type": "bool"
        }
      ],
      "stateMutability": "view",
      "type": "function"
    },
    {
      "inputs": [],
      "name": "getVIPUsers",
      "outputs": [
        {
          "internalType": "address[]",
          "name": "",
          "type": "address[]"
        }
      ],
      "stateMutability": "view",
      "type": "function"
    },
    {
      "inputs": [
        {
          "internalType": "uint256",
          "name": "tokenQuantity",
          "type": "uint256"
        }
      ],
      "name": "buy",
      "outputs": [],
      "stateMutability": "payable",
      "type": "function"
    },
    {
      "inputs": [
        {
          "internalType": "uint256",
          "name": "tokenQuantity",
          "type": "uint256"
        }
      ],
      "name": "presaleBuy",
      "outputs": [],
      "stateMutability": "payable",
      "type": "function"
    },
    {
      "inputs": [
        {
          "internalType": "uint256",
          "name": "tokenQuantity",
          "type": "uint256"
        }
      ],
      "name": "VIPBuy",
      "outputs": [],
      "stateMutability": "payable",
      "type": "function"
    },
    {
      "inputs": [],
      "name": "lockMetadata",
      "outputs": [],
      "stateMutability": "nonpayable",
      "type": "function"
    },
    {
      "inputs": [],
      "name": "stratPresale",
      "outputs": [],
      "stateMutability": "nonpayable",
      "type": "function"
    },
    {
      "inputs": [],
      "name": "startSale",
      "outputs": [],
      "stateMutability": "nonpayable",
      "type": "function"
    },
    {
      "inputs": [],
      "name": "stratVIPSale",
      "outputs": [],
      "stateMutability": "nonpayable",
      "type": "function"
    },
    {
      "inputs": [],
      "name": "stopAllSale",
      "outputs": [],
      "stateMutability": "nonpayable",
      "type": "function"
    },
    {
      "inputs": [
        {
          "internalType": "string",
          "name": "URI",
          "type": "string"
        }
      ],
      "name": "setContractURI",
      "outputs": [],
      "stateMutability": "nonpayable",
      "type": "function"
    },
    {
      "inputs": [
        {
          "internalType": "string",
          "name": "URI",
          "type": "string"
        }
      ],
      "name": "setBaseURI",
      "outputs": [],
      "stateMutability": "nonpayable",
      "type": "function"
    },
    {
      "inputs": [
        {
          "internalType": "uint256",
          "name": "tokenId",
          "type": "uint256"
        }
      ],
      "name": "tokenURI",
      "outputs": [
        {
          "internalType": "string",
          "name": "",
          "type": "string"
        }
      ],
      "stateMutability": "view",
      "type": "function"
    },
    {
      "inputs": [],
      "name": "withdraw",
      "outputs": [],
      "stateMutability": "nonpayable",
      "type": "function"
    },
    {
      "inputs": [
        {
          "internalType": "uint256[]",
          "name": "tokenIds",
          "type": "uint256[]"
        }
      ],
      "name": "reserveNFTs",
      "outputs": [],
      "stateMutability": "nonpayable",
      "type": "function"
    },
    {
      "inputs": [
        {
          "internalType": "address[]",
          "name": "_toAddresses",
          "type": "address[]"
        },
        {
          "internalType": "uint256[]",
          "name": "_tokenIds",
          "type": "uint256[]"
        }
      ],
      "name": "airdrop",
      "outputs": [],
      "stateMutability": "nonpayable",
      "type": "function"
    },
    {
      "inputs": [],
      "name": "getReserveTokens",
      "outputs": [
        {
          "internalType": "uint256[]",
          "name": "",
          "type": "uint256[]"
        }
      ],
      "stateMutability": "nonpayable",
      "type": "function"
    },
    {
      "inputs": [
        {
          "internalType": "bytes4",
          "name": "interfaceId",
          "type": "bytes4"
        }
      ],
      "name": "supportsInterface",
      "outputs": [
        {
          "internalType": "bool",
          "name": "",
          "type": "bool"
        }
      ],
      "stateMutability": "view",
      "type": "function"
    }
  ],
  "bytecode": "0x6080604052735b38da6a701c568545dcfcb03fcb875f56beddc4601660006101000a81548173ffffffffffffffffffffffffffffffffffffffff021916908373ffffffffffffffffffffffffffffffffffffffff16021790555073ab8483f64d9c6d1ecf9b849ae677dd3315835cb2601760006101000a81548173ffffffffffffffffffffffffffffffffffffffff021916908373ffffffffffffffffffffffffffffffffffffffff16021790555073ab8483f64d9c6d1ecf9b849ae677dd3315835cb2601860006101000a81548173ffffffffffffffffffffffffffffffffffffffff021916908373ffffffffffffffffffffffffffffffffffffffff160217905550618235601955618235601a556103e8601b553480156200012257600080fd5b5060405162006ef438038062006ef48339818101604052810190620001489190620004d7565b6040518060400160405280600581526020017f526171616d0000000000000000000000000000000000000000000000000000008152506040518060400160405280600381526020017f52514d00000000000000000000000000000000000000000000000000000000008152508160009080519060200190620001cc92919062000392565b508060019080519060200190620001e592919062000392565b50505062000208620001fc620002c460201b60201c565b620002cc60201b60201c565b8a600b90805190602001906200022092919062000392565b5089601c90805190602001906200023992919062000392565b5088600d8190555087600e8190555086600f819055508385876200025e919062000681565b6200026a919062000681565b600c81905550856010819055508460118190555083601281905550826013819055508160148190555080601581905550620002ab33620002cc60201b60201c565b6001602481905550505050505050505050505062000856565b600033905090565b6000600a60009054906101000a900473ffffffffffffffffffffffffffffffffffffffff16905081600a60006101000a81548173ffffffffffffffffffffffffffffffffffffffff021916908373ffffffffffffffffffffffffffffffffffffffff1602179055508173ffffffffffffffffffffffffffffffffffffffff168173ffffffffffffffffffffffffffffffffffffffff167f8be0079c531659141344cd1fd0a4f28419497f9722a3daafe3b4186f6b6457e060405160405180910390a35050565b828054620003a0906200071e565b90600052602060002090601f016020900481019282620003c4576000855562000410565b82601f10620003df57805160ff191683800117855562000410565b8280016001018555821562000410579182015b828111156200040f578251825591602001919060010190620003f2565b5b5090506200041f919062000423565b5090565b5b808211156200043e57600081600090555060010162000424565b5090565b60006200045962000453846200064b565b62000622565b9050828152602081018484840111156200047857620004776200081c565b5b62000485848285620006e8565b509392505050565b600082601f830112620004a557620004a462000817565b5b8151620004b784826020860162000442565b91505092915050565b600081519050620004d1816200083c565b92915050565b60008060008060008060008060008060006101608c8e0312156200050057620004ff62000826565b5b60008c015167ffffffffffffffff81111562000521576200052062000821565b5b6200052f8e828f016200048d565b9b505060208c015167ffffffffffffffff81111562000553576200055262000821565b5b620005618e828f016200048d565b9a50506040620005748e828f01620004c0565b9950506060620005878e828f01620004c0565b98505060806200059a8e828f01620004c0565b97505060a0620005ad8e828f01620004c0565b96505060c0620005c08e828f01620004c0565b95505060e0620005d38e828f01620004c0565b945050610100620005e78e828f01620004c0565b935050610120620005fb8e828f01620004c0565b9250506101406200060f8e828f01620004c0565b9150509295989b509295989b9093969950565b60006200062e62000641565b90506200063c828262000754565b919050565b6000604051905090565b600067ffffffffffffffff821115620006695762000668620007e8565b5b62000674826200082b565b9050602081019050919050565b60006200068e82620006de565b91506200069b83620006de565b9250827fffffffffffffffffffffffffffffffffffffffffffffffffffffffffffffffff03821115620006d357620006d26200078a565b5b828201905092915050565b6000819050919050565b60005b8381101562000708578082015181840152602081019050620006eb565b8381111562000718576000848401525b50505050565b600060028204905060018216806200073757607f821691505b602082108114156200074e576200074d620007b9565b5b50919050565b6200075f826200082b565b810181811067ffffffffffffffff82111715620007815762000780620007e8565b5b80604052505050565b7f4e487b7100000000000000000000000000000000000000000000000000000000600052601160045260246000fd5b7f4e487b7100000000000000000000000000000000000000000000000000000000600052602260045260246000fd5b7f4e487b7100000000000000000000000000000000000000000000000000000000600052604160045260246000fd5b600080fd5b600080fd5b600080fd5b600080fd5b6000601f19601f8301169050919050565b6200084781620006de565b81146200085357600080fd5b50565b61668e80620008666000396000f3fe6080604052600436106103a25760003560e01c8063815f7bbd116101e7578063b88d4fde1161010d578063d8ca0fae116100a0578063e4703c291161006f578063e4703c2914610d2f578063e8a3d48514610d58578063e985e9c514610d83578063f2fde38b14610dc0576103a2565b8063d8ca0fae14610c92578063d96a094a14610cbd578063e081b78114610cd9578063e3a1008614610d04576103a2565b8063c87b56dd116100dc578063c87b56dd14610bd4578063cf30901214610c11578063d1f3ae1b14610c3c578063d5abeb0114610c67576103a2565b8063b88d4fde14610b2e578063b8c32ac114610b57578063bb1e70a314610b80578063bb9cb63914610bab576103a2565b806395d89b4111610185578063a4331d2d11610154578063a4331d2d14610aaa578063aa7c76b514610ad5578063b02c56fb14610aec578063b66a0e5d14610b17576103a2565b806395d89b4114610a02578063989bdbb614610a2d5780639bf8031614610a44578063a22cb46514610a81576103a2565b80638bc8820f116101c15780638bc8820f146109465780638da5cb5b14610983578063938e3d7b146109ae578063940f1ada146109d7576103a2565b8063815f7bbd146108d457806383a9e049146108f057806387c0568b1461091b576103a2565b806342b47342116102cc57806359a12ad51161026a57806367ecc9f21161023957806367ecc9f21461084057806370a0823114610857578063715018a6146108945780637721c6b8146108ab576103a2565b806359a12ad5146107845780635e11f9a4146107af5780636352211e146107da5780636724348214610817576103a2565b80634fc9f7fc116102a65780634fc9f7fc146106c8578063522ee6931461070557806355f804b3146107305780635864d17114610759576103a2565b806342b47342146106235780634a8cf01f146106605780634f6ccce71461068b576103a2565b806318160ddd116103445780633b0c023b116103135780633b0c023b1461058f5780633c3b7995146105b85780633ccfd60b146105e357806342842e0e146105fa576103a2565b806318160ddd146104e257806323b872dd1461050d5780632bc6f85b146105365780632f745c5914610552576103a2565b806306fdde031161038057806306fdde031461043a578063081812fc1461046557806308a9c33e146104a2578063095ea7b3146104b9576103a2565b806301ffc9a7146103a7578063035d66a0146103e4578063062ec4b71461040f575b600080fd5b3480156103b357600080fd5b506103ce60048036038101906103c99190614bad565b610de9565b6040516103db919061544f565b60405180910390f35b3480156103f057600080fd5b506103f9610dfa565b60405161040691906158cc565b60405180910390f35b34801561041b57600080fd5b50610424610e00565b604051610431919061540b565b60405180910390f35b34801561044657600080fd5b5061044f610e91565b60405161045c919061546a565b60405180910390f35b34801561047157600080fd5b5061048c60048036038101906104879190614c54565b610f23565b60405161049991906153a4565b60405180910390f35b3480156104ae57600080fd5b506104b7610fa8565b005b3480156104c557600080fd5b506104e060048036038101906104db9190614a63565b611077565b005b3480156104ee57600080fd5b506104f761118f565b60405161050491906158cc565b60405180910390f35b34801561051957600080fd5b50610534600480360381019061052f919061494d565b61119c565b005b610550600480360381019061054b9190614c54565b6111fc565b005b34801561055e57600080fd5b5061057960048036038101906105749190614a63565b6114f9565b60405161058691906158cc565b60405180910390f35b34801561059b57600080fd5b506105b660048036038101906105b19190614aa3565b61159e565b005b3480156105c457600080fd5b506105cd61166b565b6040516105da91906158cc565b60405180910390f35b3480156105ef57600080fd5b506105f8611671565b005b34801561060657600080fd5b50610621600480360381019061061c919061494d565b61189e565b005b34801561062f57600080fd5b5061064a600480360381019061064591906148e0565b6118be565b604051610657919061544f565b60405180910390f35b34801561066c57600080fd5b506106756118db565b60405161068291906158cc565b60405180910390f35b34801561069757600080fd5b506106b260048036038101906106ad9190614c54565b6118e1565b6040516106bf91906158cc565b60405180910390f35b3480156106d457600080fd5b506106ef60048036038101906106ea91906148e0565b611952565b6040516106fc91906158cc565b60405180910390f35b34801561071157600080fd5b5061071a61196a565b60405161072791906158cc565b60405180910390f35b34801561073c57600080fd5b5061075760048036038101906107529190614c07565b611970565b005b34801561076557600080fd5b5061076e611a52565b60405161077b91906158cc565b60405180910390f35b34801561079057600080fd5b50610799611a58565b6040516107a691906158cc565b60405180910390f35b3480156107bb57600080fd5b506107c4611a5e565b6040516107d191906158cc565b60405180910390f35b3480156107e657600080fd5b5061080160048036038101906107fc9190614c54565b611a64565b60405161080e91906153a4565b60405180910390f35b34801561082357600080fd5b5061083e60048036038101906108399190614aec565b611b16565b005b34801561084c57600080fd5b50610855611cd3565b005b34801561086357600080fd5b5061087e600480360381019061087991906148e0565b611da2565b60405161088b91906158cc565b60405180910390f35b3480156108a057600080fd5b506108a9611e5a565b005b3480156108b757600080fd5b506108d260048036038101906108cd9190614b64565b611ee2565b005b6108ee60048036038101906108e99190614c54565b612040565b005b3480156108fc57600080fd5b5061090561233d565b604051610912919061544f565b60405180910390f35b34801561092757600080fd5b50610930612350565b60405161093d91906158cc565b60405180910390f35b34801561095257600080fd5b5061096d600480360381019061096891906148e0565b612356565b60405161097a919061544f565b60405180910390f35b34801561098f57600080fd5b50610998612373565b6040516109a591906153a4565b60405180910390f35b3480156109ba57600080fd5b506109d560048036038101906109d09190614c07565b61239d565b005b3480156109e357600080fd5b506109ec61247f565b6040516109f991906158cc565b60405180910390f35b348015610a0e57600080fd5b50610a17612485565b604051610a24919061546a565b60405180910390f35b348015610a3957600080fd5b50610a42612517565b005b348015610a5057600080fd5b50610a6b6004803603810190610a6691906148e0565b6125b0565b604051610a7891906158cc565b60405180910390f35b348015610a8d57600080fd5b50610aa86004803603810190610aa39190614a23565b6125c8565b005b348015610ab657600080fd5b50610abf6125de565b604051610acc91906158cc565b60405180910390f35b348015610ae157600080fd5b50610aea6125e4565b005b348015610af857600080fd5b50610b016126b3565b604051610b0e919061544f565b60405180910390f35b348015610b2357600080fd5b50610b2c6126c6565b005b348015610b3a57600080fd5b50610b556004803603810190610b5091906149a0565b612795565b005b348015610b6357600080fd5b50610b7e6004803603810190610b799190614aa3565b6127f7565b005b348015610b8c57600080fd5b50610b956128c4565b604051610ba2919061540b565b60405180910390f35b348015610bb757600080fd5b50610bd26004803603810190610bcd9190614aa3565b612955565b005b348015610be057600080fd5b50610bfb6004803603810190610bf69190614c54565b612a22565b604051610c08919061546a565b60405180910390f35b348015610c1d57600080fd5b50610c26612a9e565b604051610c33919061544f565b60405180910390f35b348015610c4857600080fd5b50610c51612ab1565b604051610c5e919061542d565b60405180910390f35b348015610c7357600080fd5b50610c7c612b0c565b604051610c8991906158cc565b60405180910390f35b348015610c9e57600080fd5b50610ca7612b12565b604051610cb491906158cc565b60405180910390f35b610cd76004803603810190610cd29190614c54565b612b18565b005b348015610ce557600080fd5b50610cee612d2e565b604051610cfb919061544f565b60405180910390f35b348015610d1057600080fd5b50610d19612d41565b604051610d2691906158cc565b60405180910390f35b348015610d3b57600080fd5b50610d566004803603810190610d519190614aa3565b612d47565b005b348015610d6457600080fd5b50610d6d612e14565b604051610d7a919061546a565b60405180910390f35b348015610d8f57600080fd5b50610daa6004803603810190610da5919061490d565b612ea2565b604051610db7919061544f565b60405180910390f35b348015610dcc57600080fd5b50610de76004803603810190610de291906148e0565b612f36565b005b6000610df48261302e565b50919050565b600f5481565b60606022600001805480602002602001604051908101604052809291908181526020018280548015610e8757602002820191906000526020600020905b8160009054906101000a900473ffffffffffffffffffffffffffffffffffffffff1673ffffffffffffffffffffffffffffffffffffffff1681526020019060010190808311610e3d575b5050505050905090565b606060008054610ea090615c2a565b80601f0160208091040260200160405190810160405280929190818152602001828054610ecc90615c2a565b8015610f195780601f10610eee57610100808354040283529160200191610f19565b820191906000526020600020905b815481529060010190602001808311610efc57829003601f168201915b5050505050905090565b6000610f2e826130a8565b610f6d576040517f08c379a0000000000000000000000000000000000000000000000000000000008152600401610f64906156ac565b60405180910390fd5b6004600083815260200190815260200160002060009054906101000a900473ffffffffffffffffffffffffffffffffffffffff169050919050565b610fb0613114565b73ffffffffffffffffffffffffffffffffffffffff16610fce612373565b73ffffffffffffffffffffffffffffffffffffffff1614611024576040517f08c379a000000000000000000000000000000000000000000000000000000000815260040161101b906156cc565b60405180910390fd5b6000602060026101000a81548160ff0219169083151502179055506000602060016101000a81548160ff0219169083151502179055506001602060006101000a81548160ff021916908315150217905550565b600061108282611a64565b90508073ffffffffffffffffffffffffffffffffffffffff168373ffffffffffffffffffffffffffffffffffffffff1614156110f3576040517f08c379a00000000000000000000000000000000000000000000000000000000081526004016110ea9061578c565b60405180910390fd5b8073ffffffffffffffffffffffffffffffffffffffff16611112613114565b73ffffffffffffffffffffffffffffffffffffffff16148061114157506111408161113b613114565b612ea2565b5b611180576040517f08c379a0000000000000000000000000000000000000000000000000000000008152600401611177906155ec565b60405180910390fd5b61118a838361311c565b505050565b6000600880549050905090565b6111ad6111a7613114565b826131d5565b6111ec576040517f08c379a00000000000000000000000000000000000000000000000000000000081526004016111e39061580c565b60405180910390fd5b6111f78383836132b3565b505050565b602060029054906101000a900460ff161580156112265750602060009054906101000a900460ff16155b801561123e5750602060019054906101000a900460ff165b61127d576040517f08c379a00000000000000000000000000000000000000000000000000000000081526004016112749061564c565b60405180910390fd5b611286336118be565b6112c5576040517f08c379a00000000000000000000000000000000000000000000000000000000081526004016112bc9061574c565b60405180910390fd5b600c546112d061118f565b10611310576040517f08c379a00000000000000000000000000000000000000000000000000000000081526004016113079061558c565b60405180910390fd5b60105481601d546113219190615a5f565b1115611362576040517f08c379a00000000000000000000000000000000000000000000000000000000081526004016113599061566c565b60405180910390fd5b60135481602660003373ffffffffffffffffffffffffffffffffffffffff1673ffffffffffffffffffffffffffffffffffffffff168152602001908152602001600020546113b09190615a5f565b11156113f1576040517f08c379a00000000000000000000000000000000000000000000000000000000081526004016113e89061588c565b60405180910390fd5b3481600d546114009190615ae6565b1115611441576040517f08c379a0000000000000000000000000000000000000000000000000000000008152600401611438906158ac565b60405180910390fd5b60005b818110156114f557601d600081548092919061145f90615c8d565b9190505550602660003373ffffffffffffffffffffffffffffffffffffffff1673ffffffffffffffffffffffffffffffffffffffff16815260200190815260200160002060008154809291906114b490615c8d565b91905055506114ca336114c561351a565b6135a3565b602460008154809291906114dd90615c8d565b919050555080806114ed90615c8d565b915050611444565b5050565b600061150483611da2565b8210611545576040517f08c379a000000000000000000000000000000000000000000000000000000000815260040161153c906154ac565b60405180910390fd5b600660008473ffffffffffffffffffffffffffffffffffffffff1673ffffffffffffffffffffffffffffffffffffffff168152602001908152602001600020600083815260200190815260200160002054905092915050565b6115a6613114565b73ffffffffffffffffffffffffffffffffffffffff166115c4612373565b73ffffffffffffffffffffffffffffffffffffffff161461161a576040517f08c379a0000000000000000000000000000000000000000000000000000000008152600401611611906156cc565b60405180910390fd5b60005b81518110156116675761165482828151811061163c5761163b615dc3565b5b6020026020010151602261377d90919063ffffffff16565b808061165f90615c8d565b91505061161d565b5050565b60115481565b611679613114565b73ffffffffffffffffffffffffffffffffffffffff16611697612373565b73ffffffffffffffffffffffffffffffffffffffff16146116ed576040517f08c379a00000000000000000000000000000000000000000000000000000000081526004016116e4906156cc565b60405180910390fd5b6000601b5460646116fe9190615ae6565b6019544761170c9190615ae6565b6117169190615ab5565b90506000601b5460646117299190615ae6565b601a54476117379190615ae6565b6117419190615ab5565b905060008183476117529190615b40565b61175c9190615b40565b9050601660009054906101000a900473ffffffffffffffffffffffffffffffffffffffff1673ffffffffffffffffffffffffffffffffffffffff166108fc849081150290604051600060405180830381858888f193505050501580156117c6573d6000803e3d6000fd5b50601760009054906101000a900473ffffffffffffffffffffffffffffffffffffffff1673ffffffffffffffffffffffffffffffffffffffff166108fc839081150290604051600060405180830381858888f1935050505015801561182f573d6000803e3d6000fd5b50601860009054906101000a900473ffffffffffffffffffffffffffffffffffffffff1673ffffffffffffffffffffffffffffffffffffffff166108fc829081150290604051600060405180830381858888f19350505050158015611898573d6000803e3d6000fd5b50505050565b6118b983838360405180602001604052806000815250612795565b505050565b60006118d482602261385f90919063ffffffff16565b9050919050565b60135481565b60006118eb61118f565b821061192c576040517f08c379a00000000000000000000000000000000000000000000000000000000081526004016119239061582c565b60405180910390fd5b600882815481106119405761193f615dc3565b5b90600052602060002001549050919050565b60266020528060005260406000206000915090505481565b60105481565b611978613114565b73ffffffffffffffffffffffffffffffffffffffff16611996612373565b73ffffffffffffffffffffffffffffffffffffffff16146119ec576040517f08c379a00000000000000000000000000000000000000000000000000000000081526004016119e3906156cc565b60405180910390fd5b602060039054906101000a900460ff1615611a3c576040517f08c379a0000000000000000000000000000000000000000000000000000000008152600401611a339061570c565b60405180910390fd5b8181600b9190611a4d9291906145d2565b505050565b600d5481565b601f5481565b60145481565b6000806002600084815260200190815260200160002060009054906101000a900473ffffffffffffffffffffffffffffffffffffffff169050600073ffffffffffffffffffffffffffffffffffffffff168173ffffffffffffffffffffffffffffffffffffffff161415611b0d576040517f08c379a0000000000000000000000000000000000000000000000000000000008152600401611b049061562c565b60405180910390fd5b80915050919050565b611b1e613114565b73ffffffffffffffffffffffffffffffffffffffff16611b3c612373565b73ffffffffffffffffffffffffffffffffffffffff1614611b92576040517f08c379a0000000000000000000000000000000000000000000000000000000008152600401611b89906156cc565b60405180910390fd5b8051825114611bd6576040517f08c379a0000000000000000000000000000000000000000000000000000000008152600401611bcd906156ec565b60405180910390fd5b60005b8251811015611cce57611c10828281518110611bf857611bf7615dc3565b5b6020026020010151602361391390919063ffffffff16565b611c4f576040517f08c379a0000000000000000000000000000000000000000000000000000000008152600401611c46906155cc565b60405180910390fd5b611c8d838281518110611c6557611c64615dc3565b5b6020026020010151838381518110611c8057611c7f615dc3565b5b60200260200101516135a3565b611cbb828281518110611ca357611ca2615dc3565b5b6020026020010151602361397b90919063ffffffff16565b8080611cc690615c8d565b915050611bd9565b505050565b611cdb613114565b73ffffffffffffffffffffffffffffffffffffffff16611cf9612373565b73ffffffffffffffffffffffffffffffffffffffff1614611d4f576040517f08c379a0000000000000000000000000000000000000000000000000000000008152600401611d46906156cc565b60405180910390fd5b6000602060026101000a81548160ff0219169083151502179055506000602060006101000a81548160ff0219169083151502179055506000602060016101000a81548160ff021916908315150217905550565b60008073ffffffffffffffffffffffffffffffffffffffff168273ffffffffffffffffffffffffffffffffffffffff161415611e13576040517f08c379a0000000000000000000000000000000000000000000000000000000008152600401611e0a9061560c565b60405180910390fd5b600360008373ffffffffffffffffffffffffffffffffffffffff1673ffffffffffffffffffffffffffffffffffffffff168152602001908152602001600020549050919050565b611e62613114565b73ffffffffffffffffffffffffffffffffffffffff16611e80612373565b73ffffffffffffffffffffffffffffffffffffffff1614611ed6576040517f08c379a0000000000000000000000000000000000000000000000000000000008152600401611ecd906156cc565b60405180910390fd5b611ee060006139f2565b565b611eea613114565b73ffffffffffffffffffffffffffffffffffffffff16611f08612373565b73ffffffffffffffffffffffffffffffffffffffff1614611f5e576040517f08c379a0000000000000000000000000000000000000000000000000000000008152600401611f55906156cc565b60405180910390fd5b60005b815181101561203c57600073ffffffffffffffffffffffffffffffffffffffff16611fa5838381518110611f9857611f97615dc3565b5b6020026020010151611a64565b73ffffffffffffffffffffffffffffffffffffffff1614611ffb576040517f08c379a0000000000000000000000000000000000000000000000000000000008152600401611ff2906157ec565b60405180910390fd5b61202982828151811061201157612010615dc3565b5b60200260200101516023613ab890919063ffffffff16565b808061203490615c8d565b915050611f61565b5050565b602060029054906101000a900460ff161580156120695750602060009054906101000a900460ff165b80156120825750602060019054906101000a900460ff16155b6120c1576040517f08c379a00000000000000000000000000000000000000000000000000000000081526004016120b89061548c565b60405180910390fd5b6120ca33612356565b612109576040517f08c379a00000000000000000000000000000000000000000000000000000000081526004016121009061574c565b60405180910390fd5b600c5461211461118f565b10612154576040517f08c379a000000000000000000000000000000000000000000000000000000000815260040161214b9061558c565b60405180910390fd5b60115481601f546121659190615a5f565b11156121a6576040517f08c379a000000000000000000000000000000000000000000000000000000000815260040161219d9061584c565b60405180910390fd5b60145481602560003373ffffffffffffffffffffffffffffffffffffffff1673ffffffffffffffffffffffffffffffffffffffff168152602001908152602001600020546121f49190615a5f565b1115612235576040517f08c379a000000000000000000000000000000000000000000000000000000000815260040161222c9061588c565b60405180910390fd5b3481600e546122449190615ae6565b1115612285576040517f08c379a000000000000000000000000000000000000000000000000000000000815260040161227c906158ac565b60405180910390fd5b60005b8181101561233957601f60008154809291906122a390615c8d565b9190505550602560003373ffffffffffffffffffffffffffffffffffffffff1673ffffffffffffffffffffffffffffffffffffffff16815260200190815260200160002060008154809291906122f890615c8d565b919050555061230e3361230961351a565b6135a3565b6024600081548092919061232190615c8d565b9190505550808061233190615c8d565b915050612288565b5050565b602060009054906101000a900460ff1681565b600e5481565b600061236c82602161385f90919063ffffffff16565b9050919050565b6000600a60009054906101000a900473ffffffffffffffffffffffffffffffffffffffff16905090565b6123a5613114565b73ffffffffffffffffffffffffffffffffffffffff166123c3612373565b73ffffffffffffffffffffffffffffffffffffffff1614612419576040517f08c379a0000000000000000000000000000000000000000000000000000000008152600401612410906156cc565b60405180910390fd5b602060039054906101000a900460ff1615612469576040517f08c379a00000000000000000000000000000000000000000000000000000000081526004016124609061570c565b60405180910390fd5b8181601c919061247a9291906145d2565b505050565b601e5481565b60606001805461249490615c2a565b80601f01602080910402602001604051908101604052809291908181526020018280546124c090615c2a565b801561250d5780601f106124e25761010080835404028352916020019161250d565b820191906000526020600020905b8154815290600101906020018083116124f057829003601f168201915b5050505050905090565b61251f613114565b73ffffffffffffffffffffffffffffffffffffffff1661253d612373565b73ffffffffffffffffffffffffffffffffffffffff1614612593576040517f08c379a000000000000000000000000000000000000000000000000000000000815260040161258a906156cc565b60405180910390fd5b6001602060036101000a81548160ff021916908315150217905550565b60256020528060005260406000206000915090505481565b6125da6125d3613114565b8383613af6565b5050565b60125481565b6125ec613114565b73ffffffffffffffffffffffffffffffffffffffff1661260a612373565b73ffffffffffffffffffffffffffffffffffffffff1614612660576040517f08c379a0000000000000000000000000000000000000000000000000000000008152600401612657906156cc565b60405180910390fd5b6000602060026101000a81548160ff0219169083151502179055506000602060006101000a81548160ff0219169083151502179055506001602060016101000a81548160ff021916908315150217905550565b602060019054906101000a900460ff1681565b6126ce613114565b73ffffffffffffffffffffffffffffffffffffffff166126ec612373565b73ffffffffffffffffffffffffffffffffffffffff1614612742576040517f08c379a0000000000000000000000000000000000000000000000000000000008152600401612739906156cc565b60405180910390fd5b6000602060016101000a81548160ff0219169083151502179055506000602060006101000a81548160ff0219169083151502179055506001602060026101000a81548160ff021916908315150217905550565b6127a66127a0613114565b836131d5565b6127e5576040517f08c379a00000000000000000000000000000000000000000000000000000000081526004016127dc9061580c565b60405180910390fd5b6127f184848484613c63565b50505050565b6127ff613114565b73ffffffffffffffffffffffffffffffffffffffff1661281d612373565b73ffffffffffffffffffffffffffffffffffffffff1614612873576040517f08c379a000000000000000000000000000000000000000000000000000000000815260040161286a906156cc565b60405180910390fd5b60005b81518110156128c0576128ad82828151811061289557612894615dc3565b5b60200260200101516021613cbf90919063ffffffff16565b80806128b890615c8d565b915050612876565b5050565b6060602160000180548060200260200160405190810160405280929190818152602001828054801561294b57602002820191906000526020600020905b8160009054906101000a900473ffffffffffffffffffffffffffffffffffffffff1673ffffffffffffffffffffffffffffffffffffffff1681526020019060010190808311612901575b5050505050905090565b61295d613114565b73ffffffffffffffffffffffffffffffffffffffff1661297b612373565b73ffffffffffffffffffffffffffffffffffffffff16146129d1576040517f08c379a00000000000000000000000000000000000000000000000000000000081526004016129c8906156cc565b60405180910390fd5b60005b8151811015612a1e57612a0b8282815181106129f3576129f2615dc3565b5b6020026020010151602161377d90919063ffffffff16565b8080612a1690615c8d565b9150506129d4565b5050565b6060612a2d826130a8565b612a6c576040517f08c379a0000000000000000000000000000000000000000000000000000000008152600401612a639061576c565b60405180910390fd5b600b612a7783613d37565b604051602001612a88929190615380565b6040516020818303038152906040529050919050565b602060039054906101000a900460ff1681565b60606023600001805480602002602001604051908101604052809291908181526020018280548015612b0257602002820191906000526020600020905b815481526020019060010190808311612aee575b5050505050905090565b600c5481565b60155481565b602060029054906101000a900460ff168015612b415750602060009054906101000a900460ff16155b8015612b5a5750602060019054906101000a900460ff16155b612b99576040517f08c379a0000000000000000000000000000000000000000000000000000000008152600401612b90906157cc565b60405180910390fd5b600c54612ba461118f565b10612be4576040517f08c379a0000000000000000000000000000000000000000000000000000000008152600401612bdb9061558c565b60405180910390fd5b60125481601e54612bf59190615a5f565b1115612c36576040517f08c379a0000000000000000000000000000000000000000000000000000000008152600401612c2d906157ac565b60405180910390fd5b601554811115612c7b576040517f08c379a0000000000000000000000000000000000000000000000000000000008152600401612c729061572c565b60405180910390fd5b3481600f54612c8a9190615ae6565b1115612ccb576040517f08c379a0000000000000000000000000000000000000000000000000000000008152600401612cc2906158ac565b60405180910390fd5b60005b81811015612d2a57601e6000815480929190612ce990615c8d565b9190505550612cff33612cfa61351a565b6135a3565b60246000815480929190612d1290615c8d565b91905055508080612d2290615c8d565b915050612cce565b5050565b602060029054906101000a900460ff1681565b601d5481565b612d4f613114565b73ffffffffffffffffffffffffffffffffffffffff16612d6d612373565b73ffffffffffffffffffffffffffffffffffffffff1614612dc3576040517f08c379a0000000000000000000000000000000000000000000000000000000008152600401612dba906156cc565b60405180910390fd5b60005b8151811015612e1057612dfd828281518110612de557612de4615dc3565b5b60200260200101516022613cbf90919063ffffffff16565b8080612e0890615c8d565b915050612dc6565b5050565b601c8054612e2190615c2a565b80601f0160208091040260200160405190810160405280929190818152602001828054612e4d90615c2a565b8015612e9a5780601f10612e6f57610100808354040283529160200191612e9a565b820191906000526020600020905b815481529060010190602001808311612e7d57829003601f168201915b505050505081565b6000600560008473ffffffffffffffffffffffffffffffffffffffff1673ffffffffffffffffffffffffffffffffffffffff16815260200190815260200160002060008373ffffffffffffffffffffffffffffffffffffffff1673ffffffffffffffffffffffffffffffffffffffff16815260200190815260200160002060009054906101000a900460ff16905092915050565b612f3e613114565b73ffffffffffffffffffffffffffffffffffffffff16612f5c612373565b73ffffffffffffffffffffffffffffffffffffffff1614612fb2576040517f08c379a0000000000000000000000000000000000000000000000000000000008152600401612fa9906156cc565b60405180910390fd5b600073ffffffffffffffffffffffffffffffffffffffff168173ffffffffffffffffffffffffffffffffffffffff161415613022576040517f08c379a0000000000000000000000000000000000000000000000000000000008152600401613019906154ec565b60405180910390fd5b61302b816139f2565b50565b60007f780e9d63000000000000000000000000000000000000000000000000000000007bffffffffffffffffffffffffffffffffffffffffffffffffffffffff1916827bffffffffffffffffffffffffffffffffffffffffffffffffffffffff191614806130a157506130a082613e98565b5b9050919050565b60008073ffffffffffffffffffffffffffffffffffffffff166002600084815260200190815260200160002060009054906101000a900473ffffffffffffffffffffffffffffffffffffffff1673ffffffffffffffffffffffffffffffffffffffff1614159050919050565b600033905090565b816004600083815260200190815260200160002060006101000a81548173ffffffffffffffffffffffffffffffffffffffff021916908373ffffffffffffffffffffffffffffffffffffffff160217905550808273ffffffffffffffffffffffffffffffffffffffff1661318f83611a64565b73ffffffffffffffffffffffffffffffffffffffff167f8c5be1e5ebec7d5bd14f71427d1e84f3dd0314c0f7b2291e5b200ac8c7c3b92560405160405180910390a45050565b60006131e0826130a8565b61321f576040517f08c379a0000000000000000000000000000000000000000000000000000000008152600401613216906155ac565b60405180910390fd5b600061322a83611a64565b90508073ffffffffffffffffffffffffffffffffffffffff168473ffffffffffffffffffffffffffffffffffffffff16148061329957508373ffffffffffffffffffffffffffffffffffffffff1661328184610f23565b73ffffffffffffffffffffffffffffffffffffffff16145b806132aa57506132a98185612ea2565b5b91505092915050565b8273ffffffffffffffffffffffffffffffffffffffff166132d382611a64565b73ffffffffffffffffffffffffffffffffffffffff1614613329576040517f08c379a00000000000000000000000000000000000000000000000000000000081526004016133209061550c565b60405180910390fd5b600073ffffffffffffffffffffffffffffffffffffffff168273ffffffffffffffffffffffffffffffffffffffff161415613399576040517f08c379a00000000000000000000000000000000000000000000000000000000081526004016133909061554c565b60405180910390fd5b6133a4838383613f7a565b6133af60008261311c565b6001600360008573ffffffffffffffffffffffffffffffffffffffff1673ffffffffffffffffffffffffffffffffffffffff16815260200190815260200160002060008282546133ff9190615b40565b925050819055506001600360008473ffffffffffffffffffffffffffffffffffffffff1673ffffffffffffffffffffffffffffffffffffffff16815260200190815260200160002060008282546134569190615a5f565b92505081905550816002600083815260200190815260200160002060006101000a81548173ffffffffffffffffffffffffffffffffffffffff021916908373ffffffffffffffffffffffffffffffffffffffff160217905550808273ffffffffffffffffffffffffffffffffffffffff168473ffffffffffffffffffffffffffffffffffffffff167fddf252ad1be2c89b69c2b068fc378daa952ba7f163c4a11628f55a4df523b3ef60405160405180910390a4613515838383613f8a565b505050565b60005b613533602454602361391390919063ffffffff16565b1561359b57600c546024541061357e576040517f08c379a00000000000000000000000000000000000000000000000000000000081526004016135759061586c565b60405180910390fd5b6024600081548092919061359190615c8d565b919050555061351d565b602454905090565b600073ffffffffffffffffffffffffffffffffffffffff168273ffffffffffffffffffffffffffffffffffffffff161415613613576040517f08c379a000000000000000000000000000000000000000000000000000000000815260040161360a9061568c565b60405180910390fd5b61361c816130a8565b1561365c576040517f08c379a00000000000000000000000000000000000000000000000000000000081526004016136539061552c565b60405180910390fd5b61366860008383613f7a565b6001600360008473ffffffffffffffffffffffffffffffffffffffff1673ffffffffffffffffffffffffffffffffffffffff16815260200190815260200160002060008282546136b89190615a5f565b92505081905550816002600083815260200190815260200160002060006101000a81548173ffffffffffffffffffffffffffffffffffffffff021916908373ffffffffffffffffffffffffffffffffffffffff160217905550808273ffffffffffffffffffffffffffffffffffffffff16600073ffffffffffffffffffffffffffffffffffffffff167fddf252ad1be2c89b69c2b068fc378daa952ba7f163c4a11628f55a4df523b3ef60405160405180910390a461377960008383613f8a565b5050565b60005b826000018054905081101561385a578173ffffffffffffffffffffffffffffffffffffffff168360000182815481106137bc576137bb615dc3565b5b9060005260206000200160009054906101000a900473ffffffffffffffffffffffffffffffffffffffff1673ffffffffffffffffffffffffffffffffffffffff1614156138475782600001818154811061381957613818615dc3565b5b9060005260206000200160006101000a81549073ffffffffffffffffffffffffffffffffffffffff02191690555b808061385290615c8d565b915050613780565b505050565b600080600090505b8360000180549050811015613907578273ffffffffffffffffffffffffffffffffffffffff168460000182815481106138a3576138a2615dc3565b5b9060005260206000200160009054906101000a900473ffffffffffffffffffffffffffffffffffffffff1673ffffffffffffffffffffffffffffffffffffffff1614156138f457600191505061390d565b80806138ff90615c8d565b915050613867565b50600090505b92915050565b600080600090505b836000018054905081101561396f578284600001828154811061394157613940615dc3565b5b9060005260206000200154141561395c576001915050613975565b808061396790615c8d565b91505061391b565b50600090505b92915050565b60005b82600001805490508110156139ed57818360000182815481106139a4576139a3615dc3565b5b906000526020600020015414156139da578260000181815481106139cb576139ca615dc3565b5b90600052602060002001600090555b80806139e590615c8d565b91505061397e565b505050565b6000600a60009054906101000a900473ffffffffffffffffffffffffffffffffffffffff16905081600a60006101000a81548173ffffffffffffffffffffffffffffffffffffffff021916908373ffffffffffffffffffffffffffffffffffffffff1602179055508173ffffffffffffffffffffffffffffffffffffffff168173ffffffffffffffffffffffffffffffffffffffff167f8be0079c531659141344cd1fd0a4f28419497f9722a3daafe3b4186f6b6457e060405160405180910390a35050565b613ac28282613913565b613af257816000018190806001815401808255809150506001900390600052602060002001600090919091909150555b5050565b8173ffffffffffffffffffffffffffffffffffffffff168373ffffffffffffffffffffffffffffffffffffffff161415613b65576040517f08c379a0000000000000000000000000000000000000000000000000000000008152600401613b5c9061556c565b60405180910390fd5b80600560008573ffffffffffffffffffffffffffffffffffffffff1673ffffffffffffffffffffffffffffffffffffffff16815260200190815260200160002060008473ffffffffffffffffffffffffffffffffffffffff1673ffffffffffffffffffffffffffffffffffffffff16815260200190815260200160002060006101000a81548160ff0219169083151502179055508173ffffffffffffffffffffffffffffffffffffffff168373ffffffffffffffffffffffffffffffffffffffff167f17307eab39ab6107e8899845ad3d59bd9653f200f220920489ca2b5937696c3183604051613c56919061544f565b60405180910390a3505050565b613c6e8484846132b3565b613c7a84848484613f8f565b613cb9576040517f08c379a0000000000000000000000000000000000000000000000000000000008152600401613cb0906154cc565b60405180910390fd5b50505050565b613cc9828261385f565b613d335781600001819080600181540180825580915050600190039060005260206000200160009091909190916101000a81548173ffffffffffffffffffffffffffffffffffffffff021916908373ffffffffffffffffffffffffffffffffffffffff1602179055505b5050565b60606000821415613d7f576040518060400160405280600181526020017f30000000000000000000000000000000000000000000000000000000000000008152509050613e93565b600082905060005b60008214613db1578080613d9a90615c8d565b915050600a82613daa9190615ab5565b9150613d87565b60008167ffffffffffffffff811115613dcd57613dcc615df2565b5b6040519080825280601f01601f191660200182016040528015613dff5781602001600182028036833780820191505090505b5090505b60008514613e8c57600182613e189190615b40565b9150600a85613e279190615cd6565b6030613e339190615a5f565b60f81b818381518110613e4957613e48615dc3565b5b60200101907effffffffffffffffffffffffffffffffffffffffffffffffffffffffffffff1916908160001a905350600a85613e859190615ab5565b9450613e03565b8093505050505b919050565b60007f80ac58cd000000000000000000000000000000000000000000000000000000007bffffffffffffffffffffffffffffffffffffffffffffffffffffffff1916827bffffffffffffffffffffffffffffffffffffffffffffffffffffffff19161480613f6357507f5b5e139f000000000000000000000000000000000000000000000000000000007bffffffffffffffffffffffffffffffffffffffffffffffffffffffff1916827bffffffffffffffffffffffffffffffffffffffffffffffffffffffff1916145b80613f735750613f7282614126565b5b9050919050565b613f85838383614190565b505050565b505050565b6000613fb08473ffffffffffffffffffffffffffffffffffffffff166142a4565b15614119578373ffffffffffffffffffffffffffffffffffffffff1663150b7a02613fd9613114565b8786866040518563ffffffff1660e01b8152600401613ffb94939291906153bf565b602060405180830381600087803b15801561401557600080fd5b505af192505050801561404657506040513d601f19601f820116820180604052508101906140439190614bda565b60015b6140c9573d8060008114614076576040519150601f19603f3d011682016040523d82523d6000602084013e61407b565b606091505b506000815114156140c1576040517f08c379a00000000000000000000000000000000000000000000000000000000081526004016140b8906154cc565b60405180910390fd5b805181602001fd5b63150b7a0260e01b7bffffffffffffffffffffffffffffffffffffffffffffffffffffffff1916817bffffffffffffffffffffffffffffffffffffffffffffffffffffffff19161491505061411e565b600190505b949350505050565b60007f01ffc9a7000000000000000000000000000000000000000000000000000000007bffffffffffffffffffffffffffffffffffffffffffffffffffffffff1916827bffffffffffffffffffffffffffffffffffffffffffffffffffffffff1916149050919050565b61419b8383836142c7565b600073ffffffffffffffffffffffffffffffffffffffff168373ffffffffffffffffffffffffffffffffffffffff1614156141de576141d9816142cc565b61421d565b8173ffffffffffffffffffffffffffffffffffffffff168373ffffffffffffffffffffffffffffffffffffffff161461421c5761421b8382614315565b5b5b600073ffffffffffffffffffffffffffffffffffffffff168273ffffffffffffffffffffffffffffffffffffffff1614156142605761425b81614482565b61429f565b8273ffffffffffffffffffffffffffffffffffffffff168273ffffffffffffffffffffffffffffffffffffffff161461429e5761429d8282614553565b5b5b505050565b6000808273ffffffffffffffffffffffffffffffffffffffff163b119050919050565b505050565b6008805490506009600083815260200190815260200160002081905550600881908060018154018082558091505060019003906000526020600020016000909190919091505550565b6000600161432284611da2565b61432c9190615b40565b9050600060076000848152602001908152602001600020549050818114614411576000600660008673ffffffffffffffffffffffffffffffffffffffff1673ffffffffffffffffffffffffffffffffffffffff168152602001908152602001600020600084815260200190815260200160002054905080600660008773ffffffffffffffffffffffffffffffffffffffff1673ffffffffffffffffffffffffffffffffffffffff168152602001908152602001600020600084815260200190815260200160002081905550816007600083815260200190815260200160002081905550505b6007600084815260200190815260200160002060009055600660008573ffffffffffffffffffffffffffffffffffffffff1673ffffffffffffffffffffffffffffffffffffffff16815260200190815260200160002060008381526020019081526020016000206000905550505050565b600060016008805490506144969190615b40565b90506000600960008481526020019081526020016000205490506000600883815481106144c6576144c5615dc3565b5b9060005260206000200154905080600883815481106144e8576144e7615dc3565b5b90600052602060002001819055508160096000838152602001908152602001600020819055506009600085815260200190815260200160002060009055600880548061453757614536615d94565b5b6001900381819060005260206000200160009055905550505050565b600061455e83611da2565b905081600660008573ffffffffffffffffffffffffffffffffffffffff1673ffffffffffffffffffffffffffffffffffffffff168152602001908152602001600020600083815260200190815260200160002081905550806007600084815260200190815260200160002081905550505050565b8280546145de90615c2a565b90600052602060002090601f0160209004810192826146005760008555614647565b82601f1061461957803560ff1916838001178555614647565b82800160010185558215614647579182015b8281111561464657823582559160200191906001019061462b565b5b5090506146549190614658565b5090565b5b80821115614671576000816000905550600101614659565b5090565b60006146886146838461590c565b6158e7565b905080838252602082019050828560208602820111156146ab576146aa615e2b565b5b60005b858110156146db57816146c18882614797565b8452602084019350602083019250506001810190506146ae565b5050509392505050565b60006146f86146f384615938565b6158e7565b9050808382526020820190508285602086028201111561471b5761471a615e2b565b5b60005b8581101561474b578161473188826148cb565b84526020840193506020830192505060018101905061471e565b5050509392505050565b600061476861476384615964565b6158e7565b90508281526020810184848401111561478457614783615e30565b5b61478f848285615be8565b509392505050565b6000813590506147a6816165fc565b92915050565b600082601f8301126147c1576147c0615e26565b5b81356147d1848260208601614675565b91505092915050565b600082601f8301126147ef576147ee615e26565b5b81356147ff8482602086016146e5565b91505092915050565b60008135905061481781616613565b92915050565b60008135905061482c8161662a565b92915050565b6000815190506148418161662a565b92915050565b600082601f83011261485c5761485b615e26565b5b813561486c848260208601614755565b91505092915050565b60008083601f84011261488b5761488a615e26565b5b8235905067ffffffffffffffff8111156148a8576148a7615e21565b5b6020830191508360018202830111156148c4576148c3615e2b565b5b9250929050565b6000813590506148da81616641565b92915050565b6000602082840312156148f6576148f5615e3a565b5b600061490484828501614797565b91505092915050565b6000806040838503121561492457614923615e3a565b5b600061493285828601614797565b925050602061494385828601614797565b9150509250929050565b60008060006060848603121561496657614965615e3a565b5b600061497486828701614797565b935050602061498586828701614797565b9250506040614996868287016148cb565b9150509250925092565b600080600080608085870312156149ba576149b9615e3a565b5b60006149c887828801614797565b94505060206149d987828801614797565b93505060406149ea878288016148cb565b925050606085013567ffffffffffffffff811115614a0b57614a0a615e35565b5b614a1787828801614847565b91505092959194509250565b60008060408385031215614a3a57614a39615e3a565b5b6000614a4885828601614797565b9250506020614a5985828601614808565b9150509250929050565b60008060408385031215614a7a57614a79615e3a565b5b6000614a8885828601614797565b9250506020614a99858286016148cb565b9150509250929050565b600060208284031215614ab957614ab8615e3a565b5b600082013567ffffffffffffffff811115614ad757614ad6615e35565b5b614ae3848285016147ac565b91505092915050565b60008060408385031215614b0357614b02615e3a565b5b600083013567ffffffffffffffff811115614b2157614b20615e35565b5b614b2d858286016147ac565b925050602083013567ffffffffffffffff811115614b4e57614b4d615e35565b5b614b5a858286016147da565b9150509250929050565b600060208284031215614b7a57614b79615e3a565b5b600082013567ffffffffffffffff811115614b9857614b97615e35565b5b614ba4848285016147da565b91505092915050565b600060208284031215614bc357614bc2615e3a565b5b6000614bd18482850161481d565b91505092915050565b600060208284031215614bf057614bef615e3a565b5b6000614bfe84828501614832565b91505092915050565b60008060208385031215614c1e57614c1d615e3a565b5b600083013567ffffffffffffffff811115614c3c57614c3b615e35565b5b614c4885828601614875565b92509250509250929050565b600060208284031215614c6a57614c69615e3a565b5b6000614c78848285016148cb565b91505092915050565b6000614c8d8383614cb1565b60208301905092915050565b6000614ca58383615362565b60208301905092915050565b614cba81615b74565b82525050565b614cc981615b74565b82525050565b6000614cda826159ca565b614ce48185615a10565b9350614cef83615995565b8060005b83811015614d20578151614d078882614c81565b9750614d12836159f6565b925050600181019050614cf3565b5085935050505092915050565b6000614d38826159d5565b614d428185615a21565b9350614d4d836159a5565b8060005b83811015614d7e578151614d658882614c99565b9750614d7083615a03565b925050600181019050614d51565b5085935050505092915050565b614d9481615b86565b82525050565b6000614da5826159e0565b614daf8185615a32565b9350614dbf818560208601615bf7565b614dc881615e3f565b840191505092915050565b6000614dde826159eb565b614de88185615a43565b9350614df8818560208601615bf7565b614e0181615e3f565b840191505092915050565b6000614e17826159eb565b614e218185615a54565b9350614e31818560208601615bf7565b80840191505092915050565b60008154614e4a81615c2a565b614e548186615a54565b94506001821660008114614e6f5760018114614e8057614eb3565b60ff19831686528186019350614eb3565b614e89856159b5565b60005b83811015614eab57815481890152600182019150602081019050614e8c565b838801955050505b50505092915050565b6000614ec9600e83615a43565b9150614ed482615e50565b602082019050919050565b6000614eec602b83615a43565b9150614ef782615e79565b604082019050919050565b6000614f0f603283615a43565b9150614f1a82615ec8565b604082019050919050565b6000614f32602683615a43565b9150614f3d82615f17565b604082019050919050565b6000614f55602583615a43565b9150614f6082615f66565b604082019050919050565b6000614f78601c83615a43565b9150614f8382615fb5565b602082019050919050565b6000614f9b602483615a43565b9150614fa682615fde565b604082019050919050565b6000614fbe601983615a43565b9150614fc98261602d565b602082019050919050565b6000614fe1600c83615a43565b9150614fec82616056565b602082019050919050565b6000615004602c83615a43565b915061500f8261607f565b604082019050919050565b6000615027601383615a43565b9150615032826160ce565b602082019050919050565b600061504a603883615a43565b9150615055826160f7565b604082019050919050565b600061506d602a83615a43565b915061507882616146565b604082019050919050565b6000615090602983615a43565b915061509b82616195565b604082019050919050565b60006150b3600a83615a43565b91506150be826161e4565b602082019050919050565b60006150d6600a83615a43565b91506150e18261620d565b602082019050919050565b60006150f9602083615a43565b915061510482616236565b602082019050919050565b600061511c602c83615a43565b91506151278261625f565b604082019050919050565b600061513f602083615a43565b915061514a826162ae565b602082019050919050565b6000615162603c83615a43565b915061516d826162d7565b604082019050919050565b6000615185602483615a43565b915061519082616326565b604082019050919050565b60006151a8601283615a43565b91506151b382616375565b602082019050919050565b60006151cb600d83615a43565b91506151d68261639e565b602082019050919050565b60006151ee601f83615a43565b91506151f9826163c7565b602082019050919050565b6000615211602183615a43565b915061521c826163f0565b604082019050919050565b6000615234600d83615a43565b915061523f8261643f565b602082019050919050565b6000615257600b83615a43565b915061526282616468565b602082019050919050565b600061527a601183615a43565b915061528582616491565b602082019050919050565b600061529d603183615a43565b91506152a8826164ba565b604082019050919050565b60006152c0602c83615a43565b91506152cb82616509565b604082019050919050565b60006152e3600e83615a43565b91506152ee82616558565b602082019050919050565b6000615306601283615a43565b915061531182616581565b602082019050919050565b6000615329600c83615a43565b9150615334826165aa565b602082019050919050565b600061534c601083615a43565b9150615357826165d3565b602082019050919050565b61536b81615bde565b82525050565b61537a81615bde565b82525050565b600061538c8285614e3d565b91506153988284614e0c565b91508190509392505050565b60006020820190506153b96000830184614cc0565b92915050565b60006080820190506153d46000830187614cc0565b6153e16020830186614cc0565b6153ee6040830185615371565b81810360608301526154008184614d9a565b905095945050505050565b600060208201905081810360008301526154258184614ccf565b905092915050565b600060208201905081810360008301526154478184614d2d565b905092915050565b60006020820190506154646000830184614d8b565b92915050565b600060208201905081810360008301526154848184614dd3565b905092915050565b600060208201905081810360008301526154a581614ebc565b9050919050565b600060208201905081810360008301526154c581614edf565b9050919050565b600060208201905081810360008301526154e581614f02565b9050919050565b6000602082019050818103600083015261550581614f25565b9050919050565b6000602082019050818103600083015261552581614f48565b9050919050565b6000602082019050818103600083015261554581614f6b565b9050919050565b6000602082019050818103600083015261556581614f8e565b9050919050565b6000602082019050818103600083015261558581614fb1565b9050919050565b600060208201905081810360008301526155a581614fd4565b9050919050565b600060208201905081810360008301526155c581614ff7565b9050919050565b600060208201905081810360008301526155e58161501a565b9050919050565b600060208201905081810360008301526156058161503d565b9050919050565b6000602082019050818103600083015261562581615060565b9050919050565b6000602082019050818103600083015261564581615083565b9050919050565b60006020820190508181036000830152615665816150a6565b9050919050565b60006020820190508181036000830152615685816150c9565b9050919050565b600060208201905081810360008301526156a5816150ec565b9050919050565b600060208201905081810360008301526156c58161510f565b9050919050565b600060208201905081810360008301526156e581615132565b9050919050565b6000602082019050818103600083015261570581615155565b9050919050565b6000602082019050818103600083015261572581615178565b9050919050565b600060208201905081810360008301526157458161519b565b9050919050565b60006020820190508181036000830152615765816151be565b9050919050565b60006020820190508181036000830152615785816151e1565b9050919050565b600060208201905081810360008301526157a581615204565b9050919050565b600060208201905081810360008301526157c581615227565b9050919050565b600060208201905081810360008301526157e58161524a565b9050919050565b600060208201905081810360008301526158058161526d565b9050919050565b6000602082019050818103600083015261582581615290565b9050919050565b60006020820190508181036000830152615845816152b3565b9050919050565b60006020820190508181036000830152615865816152d6565b9050919050565b60006020820190508181036000830152615885816152f9565b9050919050565b600060208201905081810360008301526158a58161531c565b9050919050565b600060208201905081810360008301526158c58161533f565b9050919050565b60006020820190506158e16000830184615371565b92915050565b60006158f1615902565b90506158fd8282615c5c565b919050565b6000604051905090565b600067ffffffffffffffff82111561592757615926615df2565b5b602082029050602081019050919050565b600067ffffffffffffffff82111561595357615952615df2565b5b602082029050602081019050919050565b600067ffffffffffffffff82111561597f5761597e615df2565b5b61598882615e3f565b9050602081019050919050565b6000819050602082019050919050565b6000819050602082019050919050565b60008190508160005260206000209050919050565b600081519050919050565b600081519050919050565b600081519050919050565b600081519050919050565b6000602082019050919050565b6000602082019050919050565b600082825260208201905092915050565b600082825260208201905092915050565b600082825260208201905092915050565b600082825260208201905092915050565b600081905092915050565b6000615a6a82615bde565b9150615a7583615bde565b9250827fffffffffffffffffffffffffffffffffffffffffffffffffffffffffffffffff03821115615aaa57615aa9615d07565b5b828201905092915050565b6000615ac082615bde565b9150615acb83615bde565b925082615adb57615ada615d36565b5b828204905092915050565b6000615af182615bde565b9150615afc83615bde565b9250817fffffffffffffffffffffffffffffffffffffffffffffffffffffffffffffffff0483118215151615615b3557615b34615d07565b5b828202905092915050565b6000615b4b82615bde565b9150615b5683615bde565b925082821015615b6957615b68615d07565b5b828203905092915050565b6000615b7f82615bbe565b9050919050565b60008115159050919050565b60007fffffffff0000000000000000000000000000000000000000000000000000000082169050919050565b600073ffffffffffffffffffffffffffffffffffffffff82169050919050565b6000819050919050565b82818337600083830152505050565b60005b83811015615c15578082015181840152602081019050615bfa565b83811115615c24576000848401525b50505050565b60006002820490506001821680615c4257607f821691505b60208210811415615c5657615c55615d65565b5b50919050565b615c6582615e3f565b810181811067ffffffffffffffff82111715615c8457615c83615df2565b5b80604052505050565b6000615c9882615bde565b91507fffffffffffffffffffffffffffffffffffffffffffffffffffffffffffffffff821415615ccb57615cca615d07565b5b600182019050919050565b6000615ce182615bde565b9150615cec83615bde565b925082615cfc57615cfb615d36565b5b828206905092915050565b7f4e487b7100000000000000000000000000000000000000000000000000000000600052601160045260246000fd5b7f4e487b7100000000000000000000000000000000000000000000000000000000600052601260045260246000fd5b7f4e487b7100000000000000000000000000000000000000000000000000000000600052602260045260246000fd5b7f4e487b7100000000000000000000000000000000000000000000000000000000600052603160045260246000fd5b7f4e487b7100000000000000000000000000000000000000000000000000000000600052603260045260246000fd5b7f4e487b7100000000000000000000000000000000000000000000000000000000600052604160045260246000fd5b600080fd5b600080fd5b600080fd5b600080fd5b600080fd5b600080fd5b6000601f19601f8301169050919050565b7f50524553414c455f434c4f534544000000000000000000000000000000000000600082015250565b7f455243373231456e756d657261626c653a206f776e657220696e646578206f7560008201527f74206f6620626f756e6473000000000000000000000000000000000000000000602082015250565b7f4552433732313a207472616e7366657220746f206e6f6e20455243373231526560008201527f63656976657220696d706c656d656e7465720000000000000000000000000000602082015250565b7f4f776e61626c653a206e6577206f776e657220697320746865207a65726f206160008201527f6464726573730000000000000000000000000000000000000000000000000000602082015250565b7f4552433732313a207472616e736665722066726f6d20696e636f72726563742060008201527f6f776e6572000000000000000000000000000000000000000000000000000000602082015250565b7f4552433732313a20746f6b656e20616c7265616479206d696e74656400000000600082015250565b7f4552433732313a207472616e7366657220746f20746865207a65726f2061646460008201527f7265737300000000000000000000000000000000000000000000000000000000602082015250565b7f4552433732313a20617070726f766520746f2063616c6c657200000000000000600082015250565b7f4f55545f4f465f53544f434b0000000000000000000000000000000000000000600082015250565b7f4552433732313a206f70657261746f7220717565727920666f72206e6f6e657860008201527f697374656e7420746f6b656e0000000000000000000000000000000000000000602082015250565b7f4e4654206973206e6f7420726573657276656400000000000000000000000000600082015250565b7f4552433732313a20617070726f76652063616c6c6572206973206e6f74206f7760008201527f6e6572206e6f7220617070726f76656420666f7220616c6c0000000000000000602082015250565b7f4552433732313a2062616c616e636520717565727920666f7220746865207a6560008201527f726f206164647265737300000000000000000000000000000000000000000000602082015250565b7f4552433732313a206f776e657220717565727920666f72206e6f6e657869737460008201527f656e7420746f6b656e0000000000000000000000000000000000000000000000602082015250565b7f5649505f434c4f53454400000000000000000000000000000000000000000000600082015250565b7f4558434545445f56495000000000000000000000000000000000000000000000600082015250565b7f4552433732313a206d696e7420746f20746865207a65726f2061646472657373600082015250565b7f4552433732313a20617070726f76656420717565727920666f72206e6f6e657860008201527f697374656e7420746f6b656e0000000000000000000000000000000000000000602082015250565b7f4f776e61626c653a2063616c6c6572206973206e6f7420746865206f776e6572600082015250565b7f4c656e6774682073686f756c642062652073616d65206265747765656e20275f60008201527f746f4164647265737365732720616e6420275f746f6b656e4964732700000000602082015250565b7f436f6e7472616374206d65746164617461206d6574686f647320617265206c6f60008201527f636b656400000000000000000000000000000000000000000000000000000000602082015250565b7f4558434545445f52515f5045525f4d494e540000000000000000000000000000600082015250565b7f4e4f545f5155414c494649454400000000000000000000000000000000000000600082015250565b7f43616e6e6f74207175657279206e6f6e2d6578697374656e7420746f6b656e00600082015250565b7f4552433732313a20617070726f76616c20746f2063757272656e74206f776e6560008201527f7200000000000000000000000000000000000000000000000000000000000000602082015250565b7f4558434545445f5055424c494300000000000000000000000000000000000000600082015250565b7f53616c655f434c4f534544000000000000000000000000000000000000000000600082015250565b7f4e465420616c726561647920736f6c642e000000000000000000000000000000600082015250565b7f4552433732313a207472616e736665722063616c6c6572206973206e6f74206f60008201527f776e6572206e6f7220617070726f766564000000000000000000000000000000602082015250565b7f455243373231456e756d657261626c653a20676c6f62616c20696e646578206f60008201527f7574206f6620626f756e64730000000000000000000000000000000000000000602082015250565b7f4558434545445f50524956415445000000000000000000000000000000000000600082015250565b7f4e6f20546f6b656e20417661696c61626c650000000000000000000000000000600082015250565b7f4558434545445f414c4c4f430000000000000000000000000000000000000000600082015250565b7f494e53554646494349454e545f45544800000000000000000000000000000000600082015250565b61660581615b74565b811461661057600080fd5b50565b61661c81615b86565b811461662757600080fd5b50565b61663381615b92565b811461663e57600080fd5b50565b61664a81615bde565b811461665557600080fd5b5056fea2646970667358221220e8e0219aaa5fda95406673380c45993c2db57a4a55000c87eb8fba595f767d8064736f6c63430008070033",
  "immutableReferences": {},
  "source": "// SPDX-License-Identifier: MIT\npragma solidity ^0.8.4;\n\nimport \"@openzeppelin/contracts/token/ERC721/ERC721.sol\";\nimport \"@openzeppelin/contracts/token/ERC721/extensions/ERC721Enumerable.sol\";\nimport \"@openzeppelin/contracts/access/Ownable.sol\";\nimport \"./AddressArrayLib.sol\";\nimport \"./UintArrayLib.sol\";\n\ncontract RaqamNFT is ERC721, ERC721Enumerable, Ownable {\n    //call up functions\n    using Strings for uint256;\n\n    // Admin Variables.\n    string baseURI;\n    uint256 public maxSupply;\n    uint256 public VIPPrice;\n    uint256 public privatePrice;\n    uint256 public pubilcPrice;\n    uint256 public VIPLimit;\n    uint256 public privateLimit;\n    uint256 public publicLimit;\n    uint256 public VIPLimitPerUser;\n    uint256 public privateLimitPerUser;\n    uint256 public limitPerTransaction;\n\n    // required variables.\n    address private _withdrawDev = 0x5B38Da6a701c568545dCfcB03FcB875f56beddC4;\n    address private _withdrawArt = 0xAb8483F64d9C6d1EcF9b849Ae677dD3315835cb2;\n    address private _withdrawRaqam = 0xAb8483F64d9C6d1EcF9b849Ae677dD3315835cb2;\n    uint256 private _devShare = 33333; //33.333\n    uint256 private _artShare = 33333; // 33.333\n    uint256 private _precesionValue = 1000;\n    string public contractURI;\n\n    //contract states\n    uint256 public vipAmountMinted;\n    uint256 public publicAmountMinted;\n    uint256 public privateAmountMinted;\n    bool public presaleLive;\n    bool public vipLive;\n    bool public saleLive;\n    bool public locked;\n\n    // Storing private and VIP users.\n    using AddressArrayLib for AddressArrayLib.addresses;\n    AddressArrayLib.addresses privateUsers;\n    AddressArrayLib.addresses VIPUsers;\n\n    //Reserved token variables\n    using UintArrayLib for UintArrayLib.uints;\n    UintArrayLib.uints reserveTokens;\n\n    // Auto-Number generation.\n    uint256 private tokenIdIndex;\n\n    mapping(address => uint256) public presalerListPurchases;\n    mapping(address => uint256) public vipListPurchases;\n\n    // Constructor\n    constructor(\n        string memory baseURI_,\n        string memory _contrctURI,\n        uint256 _VIPPrice,\n        uint256 _privatePrice,\n        uint256 _publicPrice,\n        uint256 _VIPLimit,\n        uint256 _privateLimit,\n        uint256 _publicLimit,\n        uint256 _VIPLimitPerUser,\n        uint256 _privateLimitPerUser,\n        uint256 _limitPerTransaction\n    ) ERC721(\"Raqam\", \"RQM\") {\n        baseURI = baseURI_;\n        contractURI = _contrctURI;\n        VIPPrice = _VIPPrice;\n        privatePrice = _privatePrice;\n        pubilcPrice = _publicPrice;\n        maxSupply = _VIPLimit + _privateLimit + _publicLimit;\n        VIPLimit = _VIPLimit;\n        privateLimit = _privateLimit;\n        publicLimit = _publicLimit;\n        VIPLimitPerUser = _VIPLimitPerUser;\n        privateLimitPerUser = _privateLimitPerUser;\n        limitPerTransaction = _limitPerTransaction;\n        _transferOwnership(msg.sender);\n        tokenIdIndex = 1;\n    }\n\n    modifier notLocked() {\n        require(!locked, \"Contract metadata methods are locked\");\n        _;\n    }\n\n    // Method to add private users.\n    function addPrivateUsers(address[] memory users) public onlyOwner {\n        // Loop through users:\n        for (uint256 index = 0; index < users.length; index++) {\n            privateUsers.add(users[index]);\n        }\n    }\n\n    // Method to remove all private users.\n    function removePrivateUsers(address[] memory users) public onlyOwner {\n        // Loop through users:\n        for (uint256 index = 0; index < users.length; index++) {\n            privateUsers.remove(users[index]);\n        }\n    }\n\n    // Method to check if user is private user\n    function isUserPrivate(address user) public view returns (bool) {\n        return privateUsers.exists(user);\n    }\n\n    // Method to get all private users\n    function getPrivateUsers() public view returns (address[] memory) {\n        return privateUsers.array;\n    }\n\n    // Method to add VIP users.\n    function addVIPUsers(address[] memory users) public onlyOwner {\n        // Loop through users:\n        for (uint256 index = 0; index < users.length; index++) {\n            VIPUsers.add(users[index]);\n        }\n    }\n\n    // Method to remove all VIP users.\n    function removeVIPUsers(address[] memory users) public onlyOwner {\n        // Loop through users:\n        for (uint256 index = 0; index < users.length; index++) {\n            VIPUsers.remove(users[index]);\n        }\n    }\n\n    // Method to check if user is VIP user\n    function isUserVIP(address user) public view returns (bool) {\n        return VIPUsers.exists(user);\n    }\n\n    // Method to get all VIP users\n    function getVIPUsers() public view returns (address[] memory) {\n        return VIPUsers.array;\n    }\n\n    //allows users to mint a Raqam\n    function buy(uint256 tokenQuantity) external payable {\n        require(saleLive && !presaleLive && !vipLive, \"Sale_CLOSED\");\n\n        require(totalSupply() < maxSupply, \"OUT_OF_STOCK\");\n        require(\n            publicAmountMinted + tokenQuantity <= publicLimit,\n            \"EXCEED_PUBLIC\"\n        );\n        require(tokenQuantity <= limitPerTransaction, \"EXCEED_RQ_PER_MINT\");\n        require(pubilcPrice * tokenQuantity <= msg.value, \"INSUFFICIENT_ETH\");\n\n        for (uint256 i = 0; i < tokenQuantity; i++) {\n            publicAmountMinted++;\n            _mint(msg.sender, getAvailbleTokenId());\n            tokenIdIndex++;\n        }\n    }\n\n    function presaleBuy(uint256 tokenQuantity) external payable {\n        require(!saleLive && presaleLive && !vipLive, \"PRESALE_CLOSED\");\n        require(isUserPrivate(msg.sender), \"NOT_QUALIFIED\");\n        require(totalSupply() < maxSupply, \"OUT_OF_STOCK\");\n        require(\n            privateAmountMinted + tokenQuantity <= privateLimit,\n            \"EXCEED_PRIVATE\"\n        );\n        require(\n            presalerListPurchases[msg.sender] + tokenQuantity <=\n                privateLimitPerUser,\n            \"EXCEED_ALLOC\"\n        );\n        require(privatePrice * tokenQuantity <= msg.value, \"INSUFFICIENT_ETH\");\n\n        for (uint256 i = 0; i < tokenQuantity; i++) {\n            privateAmountMinted++;\n            presalerListPurchases[msg.sender]++;\n            _mint(msg.sender, getAvailbleTokenId());\n            tokenIdIndex++;\n        }\n    }\n\n    function VIPBuy(uint256 tokenQuantity) external payable {\n        require(!saleLive && !presaleLive && vipLive, \"VIP_CLOSED\");\n        require(isUserVIP(msg.sender), \"NOT_QUALIFIED\");\n        require(totalSupply() < maxSupply, \"OUT_OF_STOCK\");\n        require(vipAmountMinted + tokenQuantity <= VIPLimit, \"EXCEED_VIP\");\n        require(\n            vipListPurchases[msg.sender] + tokenQuantity <= VIPLimitPerUser,\n            \"EXCEED_ALLOC\"\n        );\n        require(VIPPrice * tokenQuantity <= msg.value, \"INSUFFICIENT_ETH\");\n\n        for (uint256 i = 0; i < tokenQuantity; i++) {\n            vipAmountMinted++;\n            vipListPurchases[msg.sender]++;\n            _mint(msg.sender, getAvailbleTokenId());\n            tokenIdIndex++;\n        }\n    }\n\n    // Owner functions for enabling presale, sale, revealing and setting the provenance hash\n    function lockMetadata() external onlyOwner {\n        locked = true;\n    }\n\n    function stratPresale() external onlyOwner {\n        saleLive = false;\n        vipLive = false;\n        presaleLive = true;\n    }\n\n    function startSale() external onlyOwner {\n        vipLive = false;\n        presaleLive = false;\n        saleLive = true;\n    }\n\n    function stratVIPSale() external onlyOwner {\n        saleLive = false;\n        presaleLive = false;\n        vipLive = true;\n    }\n\n    function stopAllSale() external onlyOwner {\n        saleLive = false;\n        presaleLive = false;\n        vipLive = false;\n    }\n\n    function setContractURI(string calldata URI) external onlyOwner notLocked {\n        contractURI = URI;\n    }\n\n    function setBaseURI(string calldata URI) external onlyOwner notLocked {\n        baseURI = URI;\n    }\n\n    function tokenURI(uint256 tokenId)\n        public\n        view\n        override(ERC721)\n        returns (string memory)\n    {\n        require(_exists(tokenId), \"Cannot query non-existent token\");\n\n        return string(abi.encodePacked(baseURI, tokenId.toString()));\n    }\n\n    function withdraw() external onlyOwner {\n        uint256 devShare = (address(this).balance * _devShare) /\n            (100 * _precesionValue);\n        uint256 artShare = (address(this).balance * _artShare) /\n            (100 * _precesionValue);\n        uint256 raqamShare = address(this).balance - devShare - artShare;\n        payable(_withdrawDev).transfer(devShare);\n        payable(_withdrawArt).transfer(artShare);\n        payable(_withdrawRaqam).transfer(raqamShare);\n    }\n\n    function reserveNFTs(uint256[] memory tokenIds) external onlyOwner {\n        for (uint256 i = 0; i < tokenIds.length; i++) {\n            require(ownerOf(tokenIds[i]) == address(0), \"NFT already sold.\");\n            reserveTokens.add(tokenIds[i]);\n        }\n    }\n\n    function getAvailbleTokenId() private returns (uint256) {\n        while (reserveTokens.exists(tokenIdIndex)) {\n            require(tokenIdIndex < maxSupply, \"No Token Available\");\n            tokenIdIndex++;\n        }\n        return tokenIdIndex;\n    }\n\n    function airdrop(address[] memory _toAddresses, uint256[] memory _tokenIds)\n        public\n        onlyOwner\n    {\n        require(\n            _toAddresses.length == _tokenIds.length,\n            \"Length should be same between '_toAddresses' and '_tokenIds'\"\n        );\n\n        for (uint256 i = 0; i < _toAddresses.length; i++) {\n            require(reserveTokens.exists(_tokenIds[i]), \"NFT is not reserved\");\n            _mint(_toAddresses[i], _tokenIds[i]);\n            reserveTokens.remove(_tokenIds[i]);\n        }\n    }\n\n    function getReserveTokens() public returns (uint256[] memory) {\n        return reserveTokens.array;\n    }\n\n    function _beforeTokenTransfer(\n        address from,\n        address to,\n        uint256 tokenId\n    ) internal virtual override(ERC721, ERC721Enumerable) {\n        super._beforeTokenTransfer(from, to, tokenId);\n    }\n\n    function supportsInterface(bytes4 interfaceId)\n        public\n        view\n        virtual\n        override(ERC721, ERC721Enumerable)\n        returns (bool)\n    {\n        super.supportsInterface(interfaceId);\n    }\n}\n",
  "sourcePath": "/Users/thoughtwin/Desktop/weblisto/raqam-contract/contracts/NFT.sol",
  "compiler": {
    "name": "solc",
    "version": "0.8.7+commit.e28d00a7.Emscripten.clang"
  },
  "schemaVersion": "3.4.4",
  "updatedAt": "2022-02-15T08:06:01.393Z",
  "devdoc": {
    "kind": "dev",
    "methods": {
      "approve(address,uint256)": {
        "details": "See {IERC721-approve}."
      },
      "balanceOf(address)": {
        "details": "See {IERC721-balanceOf}."
      },
      "getApproved(uint256)": {
        "details": "See {IERC721-getApproved}."
      },
      "isApprovedForAll(address,address)": {
        "details": "See {IERC721-isApprovedForAll}."
      },
      "name()": {
        "details": "See {IERC721Metadata-name}."
      },
      "owner()": {
        "details": "Returns the address of the current owner."
      },
      "ownerOf(uint256)": {
        "details": "See {IERC721-ownerOf}."
      },
      "renounceOwnership()": {
        "details": "Leaves the contract without owner. It will not be possible to call `onlyOwner` functions anymore. Can only be called by the current owner. NOTE: Renouncing ownership will leave the contract without an owner, thereby removing any functionality that is only available to the owner."
      },
      "safeTransferFrom(address,address,uint256)": {
        "details": "See {IERC721-safeTransferFrom}."
      },
      "safeTransferFrom(address,address,uint256,bytes)": {
        "details": "See {IERC721-safeTransferFrom}."
      },
      "setApprovalForAll(address,bool)": {
        "details": "See {IERC721-setApprovalForAll}."
      },
      "symbol()": {
        "details": "See {IERC721Metadata-symbol}."
      },
      "tokenByIndex(uint256)": {
        "details": "See {IERC721Enumerable-tokenByIndex}."
      },
      "tokenOfOwnerByIndex(address,uint256)": {
        "details": "See {IERC721Enumerable-tokenOfOwnerByIndex}."
      },
      "tokenURI(uint256)": {
        "details": "See {IERC721Metadata-tokenURI}."
      },
      "totalSupply()": {
        "details": "See {IERC721Enumerable-totalSupply}."
      },
      "transferFrom(address,address,uint256)": {
        "details": "See {IERC721-transferFrom}."
      },
      "transferOwnership(address)": {
        "details": "Transfers ownership of the contract to a new account (`newOwner`). Can only be called by the current owner."
      }
    },
    "version": 1
  },
  "userdoc": {
    "kind": "user",
    "methods": {},
    "version": 1
  }
}